{
  "_format": "hh-sol-artifact-1",
  "contractName": "EventTicket",
  "sourceName": "contracts/EventTicket.sol",
  "abi": [
    {
      "inputs": [
        {
          "internalType": "uint256",
          "name": "_percentage",
          "type": "uint256"
        }
      ],
      "stateMutability": "nonpayable",
      "type": "constructor"
    },
    {
      "inputs": [],
      "name": "EventCancelledAlready",
      "type": "error"
    },
    {
      "inputs": [],
      "name": "EventEndedAlready",
      "type": "error"
    },
    {
      "inputs": [],
      "name": "InvalidEventId",
      "type": "error"
    },
    {
      "inputs": [],
      "name": "MaxRegistrationsExceeded",
      "type": "error"
    },
    {
      "inputs": [],
      "name": "NotAManager",
      "type": "error"
    },
    {
      "inputs": [],
      "name": "ZeroAddressNotAllowed",
      "type": "error"
    },
    {
      "inputs": [],
      "name": "ZeroValueNotAllowed",
      "type": "error"
    },
    {
      "anonymous": false,
      "inputs": [
        {
          "indexed": true,
          "internalType": "address",
          "name": "owner",
          "type": "address"
        },
        {
          "indexed": true,
          "internalType": "address",
          "name": "approved",
          "type": "address"
        },
        {
          "indexed": true,
          "internalType": "uint256",
          "name": "tokenId",
          "type": "uint256"
        }
      ],
      "name": "Approval",
      "type": "event"
    },
    {
      "anonymous": false,
      "inputs": [
        {
          "indexed": true,
          "internalType": "address",
          "name": "owner",
          "type": "address"
        },
        {
          "indexed": true,
          "internalType": "address",
          "name": "operator",
          "type": "address"
        },
        {
          "indexed": false,
          "internalType": "bool",
          "name": "approved",
          "type": "bool"
        }
      ],
      "name": "ApprovalForAll",
      "type": "event"
    },
    {
      "anonymous": false,
      "inputs": [
        {
          "indexed": true,
          "internalType": "address",
          "name": "previousOwner",
          "type": "address"
        },
        {
          "indexed": true,
          "internalType": "address",
          "name": "newOwner",
          "type": "address"
        }
      ],
      "name": "OwnershipTransferred",
      "type": "event"
    },
    {
      "anonymous": false,
      "inputs": [
        {
          "indexed": true,
          "internalType": "address",
          "name": "from",
          "type": "address"
        },
        {
          "indexed": true,
          "internalType": "address",
          "name": "to",
          "type": "address"
        },
        {
          "indexed": true,
          "internalType": "uint256",
          "name": "tokenId",
          "type": "uint256"
        }
      ],
      "name": "Transfer",
      "type": "event"
    },
    {
      "inputs": [
        {
          "internalType": "address",
          "name": "to",
          "type": "address"
        },
        {
          "internalType": "uint256",
          "name": "tokenId",
          "type": "uint256"
        }
      ],
      "name": "approve",
      "outputs": [],
      "stateMutability": "nonpayable",
      "type": "function"
    },
    {
      "inputs": [],
      "name": "balance",
      "outputs": [
        {
          "internalType": "uint256",
          "name": "",
          "type": "uint256"
        }
      ],
      "stateMutability": "view",
      "type": "function"
    },
    {
      "inputs": [
        {
          "internalType": "address",
          "name": "owner",
          "type": "address"
        }
      ],
      "name": "balanceOf",
      "outputs": [
        {
          "internalType": "uint256",
          "name": "",
          "type": "uint256"
        }
      ],
      "stateMutability": "view",
      "type": "function"
    },
    {
      "inputs": [
        {
          "internalType": "uint256",
          "name": "eventId",
          "type": "uint256"
        },
        {
          "internalType": "uint256",
          "name": "numOfticket",
          "type": "uint256"
        }
      ],
      "name": "buyTickets",
      "outputs": [],
      "stateMutability": "payable",
      "type": "function"
    },
    {
      "inputs": [
        {
          "internalType": "string",
          "name": "title",
          "type": "string"
        },
        {
          "internalType": "string",
          "name": "description",
          "type": "string"
        },
        {
          "internalType": "string",
          "name": "imageUrl",
          "type": "string"
        },
        {
          "internalType": "uint256",
          "name": "capacity",
          "type": "uint256"
        },
        {
          "internalType": "uint256",
          "name": "ticketCost",
          "type": "uint256"
        },
        {
          "internalType": "uint256",
          "name": "startsAt",
          "type": "uint256"
        },
        {
          "internalType": "uint256",
          "name": "endsAt",
          "type": "uint256"
        }
      ],
      "name": "createEvent",
      "outputs": [],
      "stateMutability": "nonpayable",
      "type": "function"
    },
    {
      "inputs": [
        {
          "internalType": "uint256",
          "name": "eventId",
          "type": "uint256"
        }
      ],
      "name": "deleteEvent",
      "outputs": [],
      "stateMutability": "nonpayable",
      "type": "function"
    },
    {
      "inputs": [
        {
          "internalType": "uint256",
          "name": "tokenId",
          "type": "uint256"
        }
      ],
      "name": "getApproved",
      "outputs": [
        {
          "internalType": "address",
          "name": "",
          "type": "address"
        }
      ],
      "stateMutability": "view",
      "type": "function"
    },
    {
      "inputs": [],
      "name": "getEvents",
      "outputs": [
        {
          "components": [
            {
              "internalType": "uint256",
              "name": "id",
              "type": "uint256"
            },
            {
              "internalType": "string",
              "name": "title",
              "type": "string"
            },
            {
              "internalType": "string",
              "name": "imageUrl",
              "type": "string"
            },
            {
              "internalType": "string",
              "name": "description",
              "type": "string"
            },
            {
              "internalType": "address",
              "name": "owner",
              "type": "address"
            },
            {
              "internalType": "uint256",
              "name": "sales",
              "type": "uint256"
            },
            {
              "internalType": "uint256",
              "name": "ticketCost",
              "type": "uint256"
            },
            {
              "internalType": "uint256",
              "name": "capacity",
              "type": "uint256"
            },
            {
              "internalType": "uint256",
              "name": "seats",
              "type": "uint256"
            },
            {
              "internalType": "uint256",
              "name": "startsAt",
              "type": "uint256"
            },
            {
              "internalType": "uint256",
              "name": "endsAt",
              "type": "uint256"
            },
            {
              "internalType": "uint256",
              "name": "timestamp",
              "type": "uint256"
            },
            {
              "internalType": "bool",
              "name": "deleted",
              "type": "bool"
            },
            {
              "internalType": "bool",
              "name": "paidOut",
              "type": "bool"
            },
            {
              "internalType": "bool",
              "name": "refunded",
              "type": "bool"
            },
            {
              "internalType": "bool",
              "name": "minted",
              "type": "bool"
            }
          ],
          "internalType": "struct Structs.EventStruct[]",
          "name": "Events",
          "type": "tuple[]"
        }
      ],
      "stateMutability": "view",
      "type": "function"
    },
    {
      "inputs": [],
      "name": "getMyEvents",
      "outputs": [
        {
          "components": [
            {
              "internalType": "uint256",
              "name": "id",
              "type": "uint256"
            },
            {
              "internalType": "string",
              "name": "title",
              "type": "string"
            },
            {
              "internalType": "string",
              "name": "imageUrl",
              "type": "string"
            },
            {
              "internalType": "string",
              "name": "description",
              "type": "string"
            },
            {
              "internalType": "address",
              "name": "owner",
              "type": "address"
            },
            {
              "internalType": "uint256",
              "name": "sales",
              "type": "uint256"
            },
            {
              "internalType": "uint256",
              "name": "ticketCost",
              "type": "uint256"
            },
            {
              "internalType": "uint256",
              "name": "capacity",
              "type": "uint256"
            },
            {
              "internalType": "uint256",
              "name": "seats",
              "type": "uint256"
            },
            {
              "internalType": "uint256",
              "name": "startsAt",
              "type": "uint256"
            },
            {
              "internalType": "uint256",
              "name": "endsAt",
              "type": "uint256"
            },
            {
              "internalType": "uint256",
              "name": "timestamp",
              "type": "uint256"
            },
            {
              "internalType": "bool",
              "name": "deleted",
              "type": "bool"
            },
            {
              "internalType": "bool",
              "name": "paidOut",
              "type": "bool"
            },
            {
              "internalType": "bool",
              "name": "refunded",
              "type": "bool"
            },
            {
              "internalType": "bool",
              "name": "minted",
              "type": "bool"
            }
          ],
          "internalType": "struct Structs.EventStruct[]",
          "name": "Events",
          "type": "tuple[]"
        }
      ],
      "stateMutability": "view",
      "type": "function"
    },
    {
      "inputs": [
        {
          "internalType": "uint256",
          "name": "eventId",
          "type": "uint256"
        }
      ],
      "name": "getSingleEvent",
      "outputs": [
        {
          "components": [
            {
              "internalType": "uint256",
              "name": "id",
              "type": "uint256"
            },
            {
              "internalType": "string",
              "name": "title",
              "type": "string"
            },
            {
              "internalType": "string",
              "name": "imageUrl",
              "type": "string"
            },
            {
              "internalType": "string",
              "name": "description",
              "type": "string"
            },
            {
              "internalType": "address",
              "name": "owner",
              "type": "address"
            },
            {
              "internalType": "uint256",
              "name": "sales",
              "type": "uint256"
            },
            {
              "internalType": "uint256",
              "name": "ticketCost",
              "type": "uint256"
            },
            {
              "internalType": "uint256",
              "name": "capacity",
              "type": "uint256"
            },
            {
              "internalType": "uint256",
              "name": "seats",
              "type": "uint256"
            },
            {
              "internalType": "uint256",
              "name": "startsAt",
              "type": "uint256"
            },
            {
              "internalType": "uint256",
              "name": "endsAt",
              "type": "uint256"
            },
            {
              "internalType": "uint256",
              "name": "timestamp",
              "type": "uint256"
            },
            {
              "internalType": "bool",
              "name": "deleted",
              "type": "bool"
            },
            {
              "internalType": "bool",
              "name": "paidOut",
              "type": "bool"
            },
            {
              "internalType": "bool",
              "name": "refunded",
              "type": "bool"
            },
            {
              "internalType": "bool",
              "name": "minted",
              "type": "bool"
            }
          ],
          "internalType": "struct Structs.EventStruct",
          "name": "",
          "type": "tuple"
        }
      ],
      "stateMutability": "view",
      "type": "function"
    },
    {
      "inputs": [
        {
          "internalType": "uint256",
          "name": "eventId",
          "type": "uint256"
        }
      ],
      "name": "getTickets",
      "outputs": [
        {
          "components": [
            {
              "internalType": "uint256",
              "name": "id",
              "type": "uint256"
            },
            {
              "internalType": "uint256",
              "name": "eventId",
              "type": "uint256"
            },
            {
              "internalType": "address",
              "name": "owner",
              "type": "address"
            },
            {
              "internalType": "uint256",
              "name": "ticketCost",
              "type": "uint256"
            },
            {
              "internalType": "uint256",
              "name": "timestamp",
              "type": "uint256"
            },
            {
              "internalType": "bool",
              "name": "refunded",
              "type": "bool"
            },
            {
              "internalType": "bool",
              "name": "minted",
              "type": "bool"
            }
          ],
          "internalType": "struct Structs.TicketStruct[]",
          "name": "Tickets",
          "type": "tuple[]"
        }
      ],
      "stateMutability": "view",
      "type": "function"
    },
    {
      "inputs": [
        {
          "internalType": "address",
          "name": "owner",
          "type": "address"
        },
        {
          "internalType": "address",
          "name": "operator",
          "type": "address"
        }
      ],
      "name": "isApprovedForAll",
      "outputs": [
        {
          "internalType": "bool",
          "name": "",
          "type": "bool"
        }
      ],
      "stateMutability": "view",
      "type": "function"
    },
    {
      "inputs": [],
      "name": "name",
      "outputs": [
        {
          "internalType": "string",
          "name": "",
          "type": "string"
        }
      ],
      "stateMutability": "view",
      "type": "function"
    },
    {
      "inputs": [],
      "name": "newTicketCost",
      "outputs": [
        {
          "internalType": "uint256",
          "name": "",
          "type": "uint256"
        }
      ],
      "stateMutability": "view",
      "type": "function"
    },
    {
      "inputs": [],
      "name": "owner",
      "outputs": [
        {
          "internalType": "address",
          "name": "",
          "type": "address"
        }
      ],
      "stateMutability": "view",
      "type": "function"
    },
    {
      "inputs": [
        {
          "internalType": "uint256",
          "name": "tokenId",
          "type": "uint256"
        }
      ],
      "name": "ownerOf",
      "outputs": [
        {
          "internalType": "address",
          "name": "",
          "type": "address"
        }
      ],
      "stateMutability": "view",
      "type": "function"
    },
    {
      "inputs": [
        {
          "internalType": "uint256",
          "name": "eventId",
          "type": "uint256"
        }
      ],
      "name": "payout",
      "outputs": [],
      "stateMutability": "nonpayable",
      "type": "function"
    },
    {
      "inputs": [],
      "name": "renounceOwnership",
      "outputs": [],
      "stateMutability": "nonpayable",
      "type": "function"
    },
    {
      "inputs": [
        {
          "internalType": "address",
          "name": "from",
          "type": "address"
        },
        {
          "internalType": "address",
          "name": "to",
          "type": "address"
        },
        {
          "internalType": "uint256",
          "name": "tokenId",
          "type": "uint256"
        }
      ],
      "name": "safeTransferFrom",
      "outputs": [],
      "stateMutability": "nonpayable",
      "type": "function"
    },
    {
      "inputs": [
        {
          "internalType": "address",
          "name": "from",
          "type": "address"
        },
        {
          "internalType": "address",
          "name": "to",
          "type": "address"
        },
        {
          "internalType": "uint256",
          "name": "tokenId",
          "type": "uint256"
        },
        {
          "internalType": "bytes",
          "name": "data",
          "type": "bytes"
        }
      ],
      "name": "safeTransferFrom",
      "outputs": [],
      "stateMutability": "nonpayable",
      "type": "function"
    },
    {
      "inputs": [
        {
          "internalType": "address",
          "name": "operator",
          "type": "address"
        },
        {
          "internalType": "bool",
          "name": "approved",
          "type": "bool"
        }
      ],
      "name": "setApprovalForAll",
      "outputs": [],
      "stateMutability": "nonpayable",
      "type": "function"
    },
    {
      "inputs": [
        {
          "internalType": "bytes4",
          "name": "interfaceId",
          "type": "bytes4"
        }
      ],
      "name": "supportsInterface",
      "outputs": [
        {
          "internalType": "bool",
          "name": "",
          "type": "bool"
        }
      ],
      "stateMutability": "view",
      "type": "function"
    },
    {
      "inputs": [],
      "name": "symbol",
      "outputs": [
        {
          "internalType": "string",
          "name": "",
          "type": "string"
        }
      ],
      "stateMutability": "view",
      "type": "function"
    },
    {
      "inputs": [
        {
          "internalType": "uint256",
          "name": "tokenId",
          "type": "uint256"
        }
      ],
      "name": "tokenURI",
      "outputs": [
        {
          "internalType": "string",
          "name": "",
          "type": "string"
        }
      ],
      "stateMutability": "view",
      "type": "function"
    },
    {
      "inputs": [
        {
          "internalType": "address",
          "name": "from",
          "type": "address"
        },
        {
          "internalType": "address",
          "name": "to",
          "type": "address"
        },
        {
          "internalType": "uint256",
          "name": "tokenId",
          "type": "uint256"
        }
      ],
      "name": "transferFrom",
      "outputs": [],
      "stateMutability": "nonpayable",
      "type": "function"
    },
    {
      "inputs": [
        {
          "internalType": "address",
          "name": "newOwner",
          "type": "address"
        }
      ],
      "name": "transferOwnership",
      "outputs": [],
      "stateMutability": "nonpayable",
      "type": "function"
    },
    {
      "inputs": [
        {
          "internalType": "uint256",
          "name": "eventId",
          "type": "uint256"
        },
        {
          "internalType": "string",
          "name": "title",
          "type": "string"
        },
        {
          "internalType": "string",
          "name": "description",
          "type": "string"
        },
        {
          "internalType": "string",
          "name": "imageUrl",
          "type": "string"
        },
        {
          "internalType": "uint256",
          "name": "capacity",
          "type": "uint256"
        },
        {
          "internalType": "uint256",
          "name": "ticketCost",
          "type": "uint256"
        },
        {
          "internalType": "uint256",
          "name": "startsAt",
          "type": "uint256"
        },
        {
          "internalType": "uint256",
          "name": "endsAt",
          "type": "uint256"
        }
      ],
      "name": "updateEvent",
      "outputs": [],
      "stateMutability": "nonpayable",
      "type": "function"
    }
  ],
  "bytecode": "0x60806040523480156200001157600080fd5b50604051620038253803806200382583398101604081905262000034916200010a565b604051806040016040528060078152602001664d53717561726560c81b815250604051806040016040528060028152602001614d4d60f01b8152506200008962000083620000b660201b60201c565b620000ba565b6001805560026200009b8382620001c9565b506003620000aa8282620001c9565b505050600b5562000295565b3390565b600080546001600160a01b038381166001600160a01b0319831681178455604051919092169283917f8be0079c531659141344cd1fd0a4f28419497f9722a3daafe3b4186f6b6457e09190a35050565b6000602082840312156200011d57600080fd5b5051919050565b634e487b7160e01b600052604160045260246000fd5b600181811c908216806200014f57607f821691505b6020821081036200017057634e487b7160e01b600052602260045260246000fd5b50919050565b601f821115620001c457600081815260208120601f850160051c810160208610156200019f5750805b601f850160051c820191505b81811015620001c057828155600101620001ab565b5050505b505050565b81516001600160401b03811115620001e557620001e562000124565b620001fd81620001f684546200013a565b8462000176565b602080601f8311600181146200023557600084156200021c5750858301515b600019600386901b1c1916600185901b178555620001c0565b600085815260208120601f198616915b82811015620002665788860151825594840194600190910190840162000245565b5085821015620002855787850151600019600388901b60f8161c191681555b5050505050600190811b01905550565b61358080620002a56000396000f3fe60806040526004361061019c5760003560e01c8063715018a6116100ec578063b88d4fde1161008a578063e985e9c511610064578063e985e9c514610498578063ead6d0dd146104b8578063f2fde38b146104d8578063f8749a58146104f857600080fd5b8063b88d4fde14610438578063c87b56dd14610458578063e11523431461047857600080fd5b80638da5cb5b116100c65780638da5cb5b146103cf57806395d89b41146103ed578063a22cb46514610402578063b69ef8a81461042257600080fd5b8063715018a614610387578063835e489f1461039c5780638627df46146103bc57600080fd5b806323b872dd1161015957806342842e0e1161013357806342842e0e1461030357806348094ee5146103235780636352211e1461034757806370a082311461036757600080fd5b806323b872dd146102ac5780633548124b146102cc578063404aa8f9146102ee57600080fd5b806301ffc9a7146101a157806306fdde03146101d6578063071843aa146101f8578063081812fc14610225578063095ea7b31461025d57806314f2979f1461027f575b600080fd5b3480156101ad57600080fd5b506101c16101bc366004612b11565b610518565b60405190151581526020015b60405180910390f35b3480156101e257600080fd5b506101eb61056a565b6040516101cd9190612b7e565b34801561020457600080fd5b50610218610213366004612b91565b6105fc565b6040516101cd9190612ca2565b34801561023157600080fd5b50610245610240366004612b91565b610889565b6040516001600160a01b0390911681526020016101cd565b34801561026957600080fd5b5061027d610278366004612cd1565b6108b0565b005b34801561028b57600080fd5b5061029f61029a366004612b91565b6109ca565b6040516101cd9190612cfb565b3480156102b857600080fd5b5061027d6102c7366004612d8a565b610a90565b3480156102d857600080fd5b506102e1610ac1565b6040516101cd9190612dc6565b3480156102fa57600080fd5b506102e1610e95565b34801561030f57600080fd5b5061027d61031e366004612d8a565b611215565b34801561032f57600080fd5b50610339600c5481565b6040519081526020016101cd565b34801561035357600080fd5b50610245610362366004612b91565b611230565b34801561037357600080fd5b50610339610382366004612e28565b611290565b34801561039357600080fd5b5061027d611316565b3480156103a857600080fd5b5061027d6103b7366004612eef565b61132a565b61027d6103ca366004612f9c565b61160b565b3480156103db57600080fd5b506000546001600160a01b0316610245565b3480156103f957600080fd5b506101eb6118bc565b34801561040e57600080fd5b5061027d61041d366004612fbe565b6118cb565b34801561042e57600080fd5b50610339600a5481565b34801561044457600080fd5b5061027d610453366004612ffa565b6118da565b34801561046457600080fd5b506101eb610473366004612b91565b611912565b34801561048457600080fd5b5061027d610493366004612b91565b611986565b3480156104a457600080fd5b506101c16104b3366004613076565b611b65565b3480156104c457600080fd5b5061027d6104d33660046130a9565b611b93565b3480156104e457600080fd5b5061027d6104f3366004612e28565b611d69565b34801561050457600080fd5b5061027d610513366004612b91565b611de2565b60006001600160e01b031982166380ac58cd60e01b148061054957506001600160e01b03198216635b5e139f60e01b145b8061056457506301ffc9a760e01b6001600160e01b03198316145b92915050565b6060600280546105799061315f565b80601f01602080910402602001604051908101604052809291908181526020018280546105a59061315f565b80156105f25780601f106105c7576101008083540402835291602001916105f2565b820191906000526020600020905b8154815290600101906020018083116105d557829003601f168201915b5050505050905090565b610604612a6d565b600d6000838152602001908152602001600020604051806102000160405290816000820154815260200160018201805461063d9061315f565b80601f01602080910402602001604051908101604052809291908181526020018280546106699061315f565b80156106b65780601f1061068b576101008083540402835291602001916106b6565b820191906000526020600020905b81548152906001019060200180831161069957829003601f168201915b505050505081526020016002820180546106cf9061315f565b80601f01602080910402602001604051908101604052809291908181526020018280546106fb9061315f565b80156107485780601f1061071d57610100808354040283529160200191610748565b820191906000526020600020905b81548152906001019060200180831161072b57829003601f168201915b505050505081526020016003820180546107619061315f565b80601f016020809104026020016040519081016040528092919081815260200182805461078d9061315f565b80156107da5780601f106107af576101008083540402835291602001916107da565b820191906000526020600020905b8154815290600101906020018083116107bd57829003601f168201915b505050918352505060048201546001600160a01b03166020820152600582015460408201526006820154606082015260078201546080820152600882015460a0820152600982015460c0820152600a82015460e0820152600b82015461010080830191909152600c9092015460ff808216151561012084015292810483161515610140830152620100008104831615156101608301526301000000900490911615156101809091015292915050565b600061089482611f4c565b506000908152600660205260409020546001600160a01b031690565b60006108bb82611230565b9050806001600160a01b0316836001600160a01b03160361092d5760405162461bcd60e51b815260206004820152602160248201527f4552433732313a20617070726f76616c20746f2063757272656e74206f776e656044820152603960f91b60648201526084015b60405180910390fd5b336001600160a01b038216148061094957506109498133611b65565b6109bb5760405162461bcd60e51b815260206004820152603d60248201527f4552433732313a20617070726f76652063616c6c6572206973206e6f7420746f60448201527f6b656e206f776e6572206f7220617070726f76656420666f7220616c6c0000006064820152608401610924565b6109c58383611fab565b505050565b6060600e6000838152602001908152602001600020805480602002602001604051908101604052809291908181526020016000905b82821015610a855760008481526020908190206040805160e08101825260068602909201805483526001808201548486015260028201546001600160a01b03169284019290925260038101546060840152600481015460808401526005015460ff808216151560a085015261010090910416151560c083015290835290920191016109ff565b505050509050919050565b610a9a3382612019565b610ab65760405162461bcd60e51b815260040161092490613199565b6109c5838383612078565b6060600060015b6008548111610b31576000818152600d60205260409020600c015460ff16158015610b0c57506000818152600d60205260409020600401546001600160a01b031633145b15610b1f5781610b1b816131fc565b9250505b80610b29816131fc565b915050610ac8565b508067ffffffffffffffff811115610b4b57610b4b612e43565b604051908082528060200260200182016040528015610b8457816020015b610b71612a6d565b815260200190600190039081610b695790505b509150600060015b6008548111610e8f576000818152600d60205260409020600c015460ff16158015610bd057506000818152600d60205260409020600401546001600160a01b031633145b15610e7d57600d60008281526020019081526020016000206040518061020001604052908160008201548152602001600182018054610c0e9061315f565b80601f0160208091040260200160405190810160405280929190818152602001828054610c3a9061315f565b8015610c875780601f10610c5c57610100808354040283529160200191610c87565b820191906000526020600020905b815481529060010190602001808311610c6a57829003601f168201915b50505050508152602001600282018054610ca09061315f565b80601f0160208091040260200160405190810160405280929190818152602001828054610ccc9061315f565b8015610d195780601f10610cee57610100808354040283529160200191610d19565b820191906000526020600020905b815481529060010190602001808311610cfc57829003601f168201915b50505050508152602001600382018054610d329061315f565b80601f0160208091040260200160405190810160405280929190818152602001828054610d5e9061315f565b8015610dab5780601f10610d8057610100808354040283529160200191610dab565b820191906000526020600020905b815481529060010190602001808311610d8e57829003601f168201915b505050918352505060048201546001600160a01b03166020820152600582015460408201526006820154606082015260078201546080820152600882015460a0820152600982015460c0820152600a82015460e0820152600b82015461010080830191909152600c9092015460ff80821615156101208401529281048316151561014083015262010000810483161515610160830152630100000090049091161515610180909101528483610e5f816131fc565b945081518110610e7157610e71613215565b60200260200101819052505b80610e87816131fc565b915050610b8c565b50505090565b6060600060015b6008548111610ede576000818152600d60205260409020600c015460ff16610ecc5781610ec8816131fc565b9250505b80610ed6816131fc565b915050610e9c565b508067ffffffffffffffff811115610ef857610ef8612e43565b604051908082528060200260200182016040528015610f3157816020015b610f1e612a6d565b815260200190600190039081610f165790505b509150600060015b6008548111610e8f576000818152600d60205260409020600c015460ff1661120357600d60008281526020019081526020016000206040518061020001604052908160008201548152602001600182018054610f949061315f565b80601f0160208091040260200160405190810160405280929190818152602001828054610fc09061315f565b801561100d5780601f10610fe25761010080835404028352916020019161100d565b820191906000526020600020905b815481529060010190602001808311610ff057829003601f168201915b505050505081526020016002820180546110269061315f565b80601f01602080910402602001604051908101604052809291908181526020018280546110529061315f565b801561109f5780601f106110745761010080835404028352916020019161109f565b820191906000526020600020905b81548152906001019060200180831161108257829003601f168201915b505050505081526020016003820180546110b89061315f565b80601f01602080910402602001604051908101604052809291908181526020018280546110e49061315f565b80156111315780601f1061110657610100808354040283529160200191611131565b820191906000526020600020905b81548152906001019060200180831161111457829003601f168201915b505050918352505060048201546001600160a01b03166020820152600582015460408201526006820154606082015260078201546080820152600882015460a0820152600982015460c0820152600a82015460e0820152600b82015461010080830191909152600c9092015460ff808216151561012084015292810483161515610140830152620100008104831615156101608301526301000000900490911615156101809091015284836111e5816131fc565b9450815181106111f7576111f7613215565b60200260200101819052505b8061120d816131fc565b915050610f39565b6109c5838383604051806020016040528060008152506118da565b6000818152600460205260408120546001600160a01b0316806105645760405162461bcd60e51b8152602060048201526018602482015277115490cdcc8c4e881a5b9d985b1a59081d1bdad95b88125160421b6044820152606401610924565b60006001600160a01b0382166112fa5760405162461bcd60e51b815260206004820152602960248201527f4552433732313a2061646472657373207a65726f206973206e6f7420612076616044820152683634b21037bbb732b960b91b6064820152608401610924565b506001600160a01b031660009081526005602052604090205490565b61131e6121dc565b6113286000612236565b565b8260000361134b5760405163273e150360e21b815260040160405180910390fd5b8360000361136c5760405163273e150360e21b815260040160405180910390fd5b865160000361138e576040516342bcdf7f60e11b815260040160405180910390fd5b85516000036113b0576040516342bcdf7f60e11b815260040160405180910390fd5b84516000036113d2576040516342bcdf7f60e11b815260040160405180910390fd5b816000036113f35760405163273e150360e21b815260040160405180910390fd5b81811161141357604051630c93477d60e41b815260040160405180910390fd5b611421600880546001019055565b611429612a6d565b600854815260208101889052606081018790526040810186905260e0810185905260c081018490526101208101839052610140810182905233608082015261146f612286565b61016082015280516000908152600f60209081526040808320805460ff1916600190811790915584518452600d83529220835181559083015183928201906114b79082613279565b50604082015160028201906114cc9082613279565b50606082015160038201906114e19082613279565b5060808201516004820180546001600160a01b0319166001600160a01b0390921691909117905560a0820151600582015560c0820151600682015560e082015160078201556101008083015160088301556101208301516009830155610140830151600a830155610160830151600b830155610180830151600c90920180546101a08501516101c08601516101e09096015161ffff1990921694151561ff001916949094179315159092029290921763ffff00001916620100009315159390930263ff000000191692909217630100000092151592909202919091179055604051309033906115d1908b90613339565b604051908190038120907fe6c2337f29db559b2e5b263ff5127675050f14f789d630865e25e1f91ca6dcb190600090a45050505050505050565b6000828152600f602052604090205460ff1661163a57604051630c93477d60e41b815260040160405180910390fd5b6000828152600d6020526040902060060154611657908290613355565b3410156116775760405163273e150360e21b815260040160405180910390fd5b806000036116985760405163273e150360e21b815260040160405180910390fd5b6000828152600d6020526040902060078101546008909101546116bc90839061336c565b11156116db5760405163711be3bb60e01b815260040160405180910390fd5b60005b81811015611825576117336040518060e00160405280600081526020016000815260200160006001600160a01b0316815260200160008152602001600081526020016000151581526020016000151581525090565b6000848152600e602090815260408083205484528382018790523384820152868352600d909152902060060154606082015261176d612286565b608082019081526000858152600e6020908152604080832080546001818101835591855293839020865160069095020193845591850151918301919091558301516002820180546001600160a01b039092166001600160a01b0319909216919091179055606083015160038201559051600482015560a08201516005909101805460c09093015115156101000261ff00199215159290921661ffff19909316929092171790558061181d816131fc565b9150506116de565b506000828152600d60205260408120600801805483929061184790849061336c565b9250508190555034600a6000828254611860919061336c565b90915550506000828152600d6020526040908190209051611884916001019061337f565b60405190819003812090339084907f66286b4fa16eaeab615ea054252e138d07e504faaf4c8a4215f094d1f8456e8b90600090a45050565b6060600380546105799061315f565b6118d63383836122a5565b5050565b6118e43383612019565b6119005760405162461bcd60e51b815260040161092490613199565b61190c84848484612373565b50505050565b606061191d82611f4c565b600061193460408051602081019091526000815290565b90506000815111611954576040518060200160405280600081525061197f565b8061195e846123a6565b60405160200161196f9291906133f5565b6040516020818303038152906040525b9392505050565b6000818152600f602052604090205460ff166119b557604051630c93477d60e41b815260040160405180910390fd5b6000818152600d60205260409020600c0154610100900460ff16156119ed576040516362e08d4560e01b815260040160405180910390fd5b6000818152600d60205260409020600a0154611a07612286565b11611a25576040516308cff92d60e41b815260040160405180910390fd5b6000818152600d60205260409020600401546001600160a01b03163314801590611a5a57506000546001600160a01b03163314155b15611a7857604051633a4af34560e21b815260040160405180910390fd5b611a8181612439565b611a9e576040516308cff92d60e41b815260040160405180910390fd5b6000818152600d602052604081206008810154600690910154611ac19190613355565b905060006064600b5483611ad59190613355565b611adf9190613424565b6000848152600d6020526040902060040154909150611b10906001600160a01b0316611b0b8385613446565b61253a565b611b2b611b256000546001600160a01b031690565b8261253a565b6000838152600d60205260408120600c01805461ff001916610100179055600a8054849290611b5b908490613446565b9091555050505050565b6001600160a01b03918216600090815260076020908152604080832093909416825291909152205460ff1690565b6000888152600f602052604090205460ff16611bc257604051630c93477d60e41b815260040160405180910390fd5b6000888152600d60205260409020600401546001600160a01b03163314611bfc57604051633a4af34560e21b815260040160405180910390fd5b82600003611c1d5760405163273e150360e21b815260040160405180910390fd5b83600003611c3e5760405163273e150360e21b815260040160405180910390fd5b8651600003611c60576040516342bcdf7f60e11b815260040160405180910390fd5b8551600003611c82576040516342bcdf7f60e11b815260040160405180910390fd5b8451600003611ca4576040516342bcdf7f60e11b815260040160405180910390fd5b81600003611cc55760405163273e150360e21b815260040160405180910390fd5b818111611ce557604051630c93477d60e41b815260040160405180910390fd5b6000888152600d60205260409020600101611d008882613279565b506000888152600d60205260409020600301611d1c8782613279565b506000888152600d60205260409020600201611d388682613279565b506000978852600d6020526040909720600781019390935560068301919091556009820155600a0193909355505050565b611d716121dc565b6001600160a01b038116611dd65760405162461bcd60e51b815260206004820152602660248201527f4f776e61626c653a206e6577206f776e657220697320746865207a65726f206160448201526564647265737360d01b6064820152608401610924565b611ddf81612236565b50565b6000818152600f602052604090205460ff16611e1157604051630c93477d60e41b815260040160405180910390fd5b6000818152600d60205260409020600401546001600160a01b03163314801590611e4657506000546001600160a01b03163314155b15611e6457604051633a4af34560e21b815260040160405180910390fd5b6000818152600d60205260409020600c0154610100900460ff1615611e9c576040516362e08d4560e01b815260040160405180910390fd5b6000818152600d60205260409020600c015462010000900460ff1615611ed5576040516308cff92d60e41b815260040160405180910390fd5b6000818152600d60205260409020600c015460ff1615611f08576040516308cff92d60e41b815260040160405180910390fd5b611f118161259a565b611f2e576040516308cff92d60e41b815260040160405180910390fd5b6000908152600d60205260409020600c01805460ff19166001179055565b6000818152600460205260409020546001600160a01b0316611ddf5760405162461bcd60e51b8152602060048201526018602482015277115490cdcc8c4e881a5b9d985b1a59081d1bdad95b88125160421b6044820152606401610924565b600081815260066020526040902080546001600160a01b0319166001600160a01b0384169081179091558190611fe082611230565b6001600160a01b03167f8c5be1e5ebec7d5bd14f71427d1e84f3dd0314c0f7b2291e5b200ac8c7c3b92560405160405180910390a45050565b60008061202583611230565b9050806001600160a01b0316846001600160a01b0316148061204c575061204c8185611b65565b806120705750836001600160a01b031661206584610889565b6001600160a01b0316145b949350505050565b826001600160a01b031661208b82611230565b6001600160a01b0316146120b15760405162461bcd60e51b815260040161092490613459565b6001600160a01b0382166121135760405162461bcd60e51b8152602060048201526024808201527f4552433732313a207472616e7366657220746f20746865207a65726f206164646044820152637265737360e01b6064820152608401610924565b826001600160a01b031661212682611230565b6001600160a01b03161461214c5760405162461bcd60e51b815260040161092490613459565b600081815260066020908152604080832080546001600160a01b03199081169091556001600160a01b0387811680865260058552838620805460001901905590871680865283862080546001019055868652600490945282852080549092168417909155905184937fddf252ad1be2c89b69c2b068fc378daa952ba7f163c4a11628f55a4df523b3ef91a4505050565b6000546001600160a01b031633146113285760405162461bcd60e51b815260206004820181905260248201527f4f776e61626c653a2063616c6c6572206973206e6f7420746865206f776e65726044820152606401610924565b600080546001600160a01b038381166001600160a01b0319831681178455604051919092169283917f8be0079c531659141344cd1fd0a4f28419497f9722a3daafe3b4186f6b6457e09190a35050565b6000612294426103e8613355565b6122a0906103e861336c565b905090565b816001600160a01b0316836001600160a01b0316036123065760405162461bcd60e51b815260206004820152601960248201527f4552433732313a20617070726f766520746f2063616c6c6572000000000000006044820152606401610924565b6001600160a01b03838116600081815260076020908152604080832094871680845294825291829020805460ff191686151590811790915591519182527f17307eab39ab6107e8899845ad3d59bd9653f200f220920489ca2b5937696c31910160405180910390a3505050565b61237e848484612078565b61238a84848484612709565b61190c5760405162461bcd60e51b81526004016109249061349e565b606060006123b38361280a565b600101905060008167ffffffffffffffff8111156123d3576123d3612e43565b6040519080825280601f01601f1916602001820160405280156123fd576020820181803683370190505b5090508181016020015b600019016f181899199a1a9b1b9c1cb0b131b232b360811b600a86061a8153600a850494508461240757509392505050565b6000805b6000838152600e602052604090205481101561251157612461600980546001019055565b6000838152600e602052604090208054600191908390811061248557612485613215565b906000526020600020906006020160050160016101000a81548160ff0219169083151502179055506124ff600e600085815260200190815260200160002082815481106124d4576124d4613215565b60009182526020909120600260069092020101546001600160a01b03166124fa60095490565b6128e2565b80612509816131fc565b91505061243d565b50506000908152600d60205260409020600c01805463ff00000019166301000000179055600190565b6000826001600160a01b03168260405160006040518083038185875af1925050503d8060008114612587576040519150601f19603f3d011682016040523d82523d6000602084013e61258c565b606091505b50509050806109c557600080fd5b6000805b6000838152600e60205260409020548110156126e2576000838152600e60205260409020805460019190839081106125d8576125d8613215565b906000526020600020906006020160050160006101000a81548160ff021916908315150217905550612687600e6000858152602001908152602001600020828154811061262757612627613215565b906000526020600020906006020160020160009054906101000a90046001600160a01b0316600e6000868152602001908152602001600020838154811061267057612670613215565b90600052602060002090600602016003015461253a565b6000838152600e602052604090208054829081106126a7576126a7613215565b906000526020600020906006020160030154600a60008282546126ca9190613446565b909155508190506126da816131fc565b91505061259e565b50506000908152600d60205260409020600c01805462ff0000191662010000179055600190565b60006001600160a01b0384163b156127ff57604051630a85bd0160e11b81526001600160a01b0385169063150b7a029061274d9033908990889088906004016134f0565b6020604051808303816000875af1925050508015612788575060408051601f3d908101601f191682019092526127859181019061352d565b60015b6127e5573d8080156127b6576040519150601f19603f3d011682016040523d82523d6000602084013e6127bb565b606091505b5080516000036127dd5760405162461bcd60e51b81526004016109249061349e565b805181602001fd5b6001600160e01b031916630a85bd0160e11b149050612070565b506001949350505050565b60008072184f03e93ff9f4daa797ed6e38ed64bf6a1f0160401b83106128495772184f03e93ff9f4daa797ed6e38ed64bf6a1f0160401b830492506040015b6d04ee2d6d415b85acef81000000008310612875576d04ee2d6d415b85acef8100000000830492506020015b662386f26fc10000831061289357662386f26fc10000830492506010015b6305f5e10083106128ab576305f5e100830492506008015b61271083106128bf57612710830492506004015b606483106128d1576064830492506002015b600a83106105645760010192915050565b6001600160a01b0382166129385760405162461bcd60e51b815260206004820181905260248201527f4552433732313a206d696e7420746f20746865207a65726f20616464726573736044820152606401610924565b6000818152600460205260409020546001600160a01b03161561299d5760405162461bcd60e51b815260206004820152601c60248201527f4552433732313a20746f6b656e20616c7265616479206d696e746564000000006044820152606401610924565b6000818152600460205260409020546001600160a01b031615612a025760405162461bcd60e51b815260206004820152601c60248201527f4552433732313a20746f6b656e20616c7265616479206d696e746564000000006044820152606401610924565b6001600160a01b038216600081815260056020908152604080832080546001019055848352600490915280822080546001600160a01b0319168417905551839291907fddf252ad1be2c89b69c2b068fc378daa952ba7f163c4a11628f55a4df523b3ef908290a45050565b6040518061020001604052806000815260200160608152602001606081526020016060815260200160006001600160a01b03168152602001600081526020016000815260200160008152602001600081526020016000815260200160008152602001600081526020016000151581526020016000151581526020016000151581526020016000151581525090565b6001600160e01b031981168114611ddf57600080fd5b600060208284031215612b2357600080fd5b813561197f81612afb565b60005b83811015612b49578181015183820152602001612b31565b50506000910152565b60008151808452612b6a816020860160208601612b2e565b601f01601f19169290920160200192915050565b60208152600061197f6020830184612b52565b600060208284031215612ba357600080fd5b5035919050565b6000610200825184526020830151816020860152612bca82860182612b52565b91505060408301518482036040860152612be48282612b52565b91505060608301518482036060860152612bfe8282612b52565b9150506080830151612c1b60808601826001600160a01b03169052565b5060a0838101519085015260c0808401519085015260e080840151908501526101008084015190850152610120808401519085015261014080840151908501526101608084015190850152610180808401511515908501526101a0808401511515908501526101c0808401511515908501526101e092830151151592909301919091525090565b60208152600061197f6020830184612baa565b80356001600160a01b0381168114612ccc57600080fd5b919050565b60008060408385031215612ce457600080fd5b612ced83612cb5565b946020939093013593505050565b602080825282518282018190526000919060409081850190868401855b82811015612d7d578151805185528681015187860152858101516001600160a01b031686860152606080820151908601526080808201519086015260a08082015115159086015260c09081015115159085015260e09093019290850190600101612d18565b5091979650505050505050565b600080600060608486031215612d9f57600080fd5b612da884612cb5565b9250612db660208501612cb5565b9150604084013590509250925092565b6000602080830181845280855180835260408601915060408160051b870101925083870160005b82811015612e1b57603f19888603018452612e09858351612baa565b94509285019290850190600101612ded565b5092979650505050505050565b600060208284031215612e3a57600080fd5b61197f82612cb5565b634e487b7160e01b600052604160045260246000fd5b600067ffffffffffffffff80841115612e7457612e74612e43565b604051601f8501601f19908116603f01168101908282118183101715612e9c57612e9c612e43565b81604052809350858152868686011115612eb557600080fd5b858560208301376000602087830101525050509392505050565b600082601f830112612ee057600080fd5b61197f83833560208501612e59565b600080600080600080600060e0888a031215612f0a57600080fd5b873567ffffffffffffffff80821115612f2257600080fd5b612f2e8b838c01612ecf565b985060208a0135915080821115612f4457600080fd5b612f508b838c01612ecf565b975060408a0135915080821115612f6657600080fd5b50612f738a828b01612ecf565b979a96995096976060810135975060808101359660a0820135965060c090910135945092505050565b60008060408385031215612faf57600080fd5b50508035926020909101359150565b60008060408385031215612fd157600080fd5b612fda83612cb5565b915060208301358015158114612fef57600080fd5b809150509250929050565b6000806000806080858703121561301057600080fd5b61301985612cb5565b935061302760208601612cb5565b925060408501359150606085013567ffffffffffffffff81111561304a57600080fd5b8501601f8101871361305b57600080fd5b61306a87823560208401612e59565b91505092959194509250565b6000806040838503121561308957600080fd5b61309283612cb5565b91506130a060208401612cb5565b90509250929050565b600080600080600080600080610100898b0312156130c657600080fd5b88359750602089013567ffffffffffffffff808211156130e557600080fd5b6130f18c838d01612ecf565b985060408b013591508082111561310757600080fd5b6131138c838d01612ecf565b975060608b013591508082111561312957600080fd5b506131368b828c01612ecf565b989b979a50959860808101359760a0820135975060c0820135965060e090910135945092505050565b600181811c9082168061317357607f821691505b60208210810361319357634e487b7160e01b600052602260045260246000fd5b50919050565b6020808252602d908201527f4552433732313a2063616c6c6572206973206e6f7420746f6b656e206f776e6560408201526c1c881bdc88185c1c1c9bdd9959609a1b606082015260800190565b634e487b7160e01b600052601160045260246000fd5b60006001820161320e5761320e6131e6565b5060010190565b634e487b7160e01b600052603260045260246000fd5b601f8211156109c557600081815260208120601f850160051c810160208610156132525750805b601f850160051c820191505b818110156132715782815560010161325e565b505050505050565b815167ffffffffffffffff81111561329357613293612e43565b6132a7816132a1845461315f565b8461322b565b602080601f8311600181146132dc57600084156132c45750858301515b600019600386901b1c1916600185901b178555613271565b600085815260208120601f198616915b8281101561330b578886015182559484019460019091019084016132ec565b50858210156133295787850151600019600388901b60f8161c191681555b5050505050600190811b01905550565b6000825161334b818460208701612b2e565b9190910192915050565b8082028115828204841417610564576105646131e6565b80820180821115610564576105646131e6565b600080835461338d8161315f565b600182811680156133a557600181146133ba576133e9565b60ff19841687528215158302870194506133e9565b8760005260208060002060005b858110156133e05781548a8201529084019082016133c7565b50505082870194505b50929695505050505050565b60008351613407818460208801612b2e565b83519083019061341b818360208801612b2e565b01949350505050565b60008261344157634e487b7160e01b600052601260045260246000fd5b500490565b81810381811115610564576105646131e6565b60208082526025908201527f4552433732313a207472616e736665722066726f6d20696e636f72726563742060408201526437bbb732b960d91b606082015260800190565b60208082526032908201527f4552433732313a207472616e7366657220746f206e6f6e20455243373231526560408201527131b2b4bb32b91034b6b83632b6b2b73a32b960711b606082015260800190565b6001600160a01b038581168252841660208201526040810183905260806060820181905260009061352390830184612b52565b9695505050505050565b60006020828403121561353f57600080fd5b815161197f81612afb56fea2646970667358221220408e083295c3ce6de5d29c6ec44c57b2e2d6fde97809abe325fc96d6d64d09aa64736f6c63430008110033",
  "linkReferences": {},
  "deployedLinkReferences": {}
}