{
    "_format": "hh-sol-artifact-1",
    "contractName": "EventTicket",
    "sourceName": "contracts/EventTicket.sol",
    "abi": [
        {
            "inputs": [
                {
                    "internalType": "uint256",
                    "name": "_percentage",
                    "type": "uint256"
                }
            ],
            "stateMutability": "nonpayable",
            "type": "constructor"
        },
        {
            "inputs": [],
            "name": "EventCancelledAlready",
            "type": "error"
        },
        {
            "inputs": [],
            "name": "EventEndedAlready",
            "type": "error"
        },
        {
            "inputs": [],
            "name": "InvalidEventId",
            "type": "error"
        },
        {
            "inputs": [],
            "name": "MaxRegistrationsExceeded",
            "type": "error"
        },
        {
            "inputs": [],
            "name": "NotAManager",
            "type": "error"
        },
        {
            "inputs": [],
            "name": "ZeroAddressNotAllowed",
            "type": "error"
        },
        {
            "inputs": [],
            "name": "ZeroValueNotAllowed",
            "type": "error"
        },
        {
            "anonymous": false,
            "inputs": [
                {
                    "indexed": true,
                    "internalType": "address",
                    "name": "owner",
                    "type": "address"
                },
                {
                    "indexed": true,
                    "internalType": "address",
                    "name": "approved",
                    "type": "address"
                },
                {
                    "indexed": true,
                    "internalType": "uint256",
                    "name": "tokenId",
                    "type": "uint256"
                }
            ],
            "name": "Approval",
            "type": "event"
        },
        {
            "anonymous": false,
            "inputs": [
                {
                    "indexed": true,
                    "internalType": "address",
                    "name": "owner",
                    "type": "address"
                },
                {
                    "indexed": true,
                    "internalType": "address",
                    "name": "operator",
                    "type": "address"
                },
                {
                    "indexed": false,
                    "internalType": "bool",
                    "name": "approved",
                    "type": "bool"
                }
            ],
            "name": "ApprovalForAll",
            "type": "event"
        },
        {
            "anonymous": false,
            "inputs": [
                {
                    "indexed": true,
                    "internalType": "address",
                    "name": "previousOwner",
                    "type": "address"
                },
                {
                    "indexed": true,
                    "internalType": "address",
                    "name": "newOwner",
                    "type": "address"
                }
            ],
            "name": "OwnershipTransferred",
            "type": "event"
        },
        {
            "anonymous": false,
            "inputs": [
                {
                    "indexed": true,
                    "internalType": "address",
                    "name": "from",
                    "type": "address"
                },
                {
                    "indexed": true,
                    "internalType": "address",
                    "name": "to",
                    "type": "address"
                },
                {
                    "indexed": true,
                    "internalType": "uint256",
                    "name": "tokenId",
                    "type": "uint256"
                }
            ],
            "name": "Transfer",
            "type": "event"
        },
        {
            "inputs": [
                {
                    "internalType": "address",
                    "name": "to",
                    "type": "address"
                },
                {
                    "internalType": "uint256",
                    "name": "tokenId",
                    "type": "uint256"
                }
            ],
            "name": "approve",
            "outputs": [],
            "stateMutability": "nonpayable",
            "type": "function"
        },
        {
            "inputs": [],
            "name": "balance",
            "outputs": [
                {
                    "internalType": "uint256",
                    "name": "",
                    "type": "uint256"
                }
            ],
            "stateMutability": "view",
            "type": "function"
        },
        {
            "inputs": [
                {
                    "internalType": "address",
                    "name": "owner",
                    "type": "address"
                }
            ],
            "name": "balanceOf",
            "outputs": [
                {
                    "internalType": "uint256",
                    "name": "",
                    "type": "uint256"
                }
            ],
            "stateMutability": "view",
            "type": "function"
        },
        {
            "inputs": [
                {
                    "internalType": "uint256",
                    "name": "eventId",
                    "type": "uint256"
                },
                {
                    "internalType": "uint256",
                    "name": "numOfticket",
                    "type": "uint256"
                }
            ],
            "name": "buyTickets",
            "outputs": [],
            "stateMutability": "payable",
            "type": "function"
        },
        {
            "inputs": [
                {
                    "internalType": "string",
                    "name": "title",
                    "type": "string"
                },
                {
                    "internalType": "string",
                    "name": "description",
                    "type": "string"
                },
                {
                    "internalType": "string",
                    "name": "imageUrl",
                    "type": "string"
                },
                {
                    "internalType": "uint256",
                    "name": "capacity",
                    "type": "uint256"
                },
                {
                    "internalType": "uint256",
                    "name": "ticketCost",
                    "type": "uint256"
                },
                {
                    "internalType": "uint256",
                    "name": "startsAt",
                    "type": "uint256"
                },
                {
                    "internalType": "uint256",
                    "name": "endsAt",
                    "type": "uint256"
                }
            ],
            "name": "createEvent",
            "outputs": [],
            "stateMutability": "nonpayable",
            "type": "function"
        },
        {
            "inputs": [
                {
                    "internalType": "uint256",
                    "name": "eventId",
                    "type": "uint256"
                }
            ],
            "name": "deleteEvent",
            "outputs": [],
            "stateMutability": "nonpayable",
            "type": "function"
        },
        {
            "inputs": [
                {
                    "internalType": "uint256",
                    "name": "tokenId",
                    "type": "uint256"
                }
            ],
            "name": "getApproved",
            "outputs": [
                {
                    "internalType": "address",
                    "name": "",
                    "type": "address"
                }
            ],
            "stateMutability": "view",
            "type": "function"
        },
        {
            "inputs": [],
            "name": "getEHTPrice",
            "outputs": [
                {
                    "internalType": "uint256",
                    "name": "",
                    "type": "uint256"
                }
            ],
            "stateMutability": "view",
            "type": "function"
        },
        {
            "inputs": [],
            "name": "getEvents",
            "outputs": [
                {
                    "components": [
                        {
                            "internalType": "uint256",
                            "name": "id",
                            "type": "uint256"
                        },
                        {
                            "internalType": "string",
                            "name": "title",
                            "type": "string"
                        },
                        {
                            "internalType": "string",
                            "name": "imageUrl",
                            "type": "string"
                        },
                        {
                            "internalType": "string",
                            "name": "description",
                            "type": "string"
                        },
                        {
                            "internalType": "address",
                            "name": "owner",
                            "type": "address"
                        },
                        {
                            "internalType": "uint256",
                            "name": "sales",
                            "type": "uint256"
                        },
                        {
                            "internalType": "uint256",
                            "name": "ticketCost",
                            "type": "uint256"
                        },
                        {
                            "internalType": "uint256",
                            "name": "capacity",
                            "type": "uint256"
                        },
                        {
                            "internalType": "uint256",
                            "name": "seats",
                            "type": "uint256"
                        },
                        {
                            "internalType": "uint256",
                            "name": "startsAt",
                            "type": "uint256"
                        },
                        {
                            "internalType": "uint256",
                            "name": "endsAt",
                            "type": "uint256"
                        },
                        {
                            "internalType": "uint256",
                            "name": "timestamp",
                            "type": "uint256"
                        },
                        {
                            "internalType": "bool",
                            "name": "deleted",
                            "type": "bool"
                        },
                        {
                            "internalType": "bool",
                            "name": "paidOut",
                            "type": "bool"
                        },
                        {
                            "internalType": "bool",
                            "name": "refunded",
                            "type": "bool"
                        },
                        {
                            "internalType": "bool",
                            "name": "minted",
                            "type": "bool"
                        }
                    ],
                    "internalType": "struct Structs.EventStruct[]",
                    "name": "Events",
                    "type": "tuple[]"
                }
            ],
            "stateMutability": "view",
            "type": "function"
        },
        {
            "inputs": [],
            "name": "getMyEvents",
            "outputs": [
                {
                    "components": [
                        {
                            "internalType": "uint256",
                            "name": "id",
                            "type": "uint256"
                        },
                        {
                            "internalType": "string",
                            "name": "title",
                            "type": "string"
                        },
                        {
                            "internalType": "string",
                            "name": "imageUrl",
                            "type": "string"
                        },
                        {
                            "internalType": "string",
                            "name": "description",
                            "type": "string"
                        },
                        {
                            "internalType": "address",
                            "name": "owner",
                            "type": "address"
                        },
                        {
                            "internalType": "uint256",
                            "name": "sales",
                            "type": "uint256"
                        },
                        {
                            "internalType": "uint256",
                            "name": "ticketCost",
                            "type": "uint256"
                        },
                        {
                            "internalType": "uint256",
                            "name": "capacity",
                            "type": "uint256"
                        },
                        {
                            "internalType": "uint256",
                            "name": "seats",
                            "type": "uint256"
                        },
                        {
                            "internalType": "uint256",
                            "name": "startsAt",
                            "type": "uint256"
                        },
                        {
                            "internalType": "uint256",
                            "name": "endsAt",
                            "type": "uint256"
                        },
                        {
                            "internalType": "uint256",
                            "name": "timestamp",
                            "type": "uint256"
                        },
                        {
                            "internalType": "bool",
                            "name": "deleted",
                            "type": "bool"
                        },
                        {
                            "internalType": "bool",
                            "name": "paidOut",
                            "type": "bool"
                        },
                        {
                            "internalType": "bool",
                            "name": "refunded",
                            "type": "bool"
                        },
                        {
                            "internalType": "bool",
                            "name": "minted",
                            "type": "bool"
                        }
                    ],
                    "internalType": "struct Structs.EventStruct[]",
                    "name": "Events",
                    "type": "tuple[]"
                }
            ],
            "stateMutability": "view",
            "type": "function"
        },
        {
            "inputs": [
                {
                    "internalType": "uint256",
                    "name": "eventId",
                    "type": "uint256"
                }
            ],
            "name": "getSingleEvent",
            "outputs": [
                {
                    "components": [
                        {
                            "internalType": "uint256",
                            "name": "id",
                            "type": "uint256"
                        },
                        {
                            "internalType": "string",
                            "name": "title",
                            "type": "string"
                        },
                        {
                            "internalType": "string",
                            "name": "imageUrl",
                            "type": "string"
                        },
                        {
                            "internalType": "string",
                            "name": "description",
                            "type": "string"
                        },
                        {
                            "internalType": "address",
                            "name": "owner",
                            "type": "address"
                        },
                        {
                            "internalType": "uint256",
                            "name": "sales",
                            "type": "uint256"
                        },
                        {
                            "internalType": "uint256",
                            "name": "ticketCost",
                            "type": "uint256"
                        },
                        {
                            "internalType": "uint256",
                            "name": "capacity",
                            "type": "uint256"
                        },
                        {
                            "internalType": "uint256",
                            "name": "seats",
                            "type": "uint256"
                        },
                        {
                            "internalType": "uint256",
                            "name": "startsAt",
                            "type": "uint256"
                        },
                        {
                            "internalType": "uint256",
                            "name": "endsAt",
                            "type": "uint256"
                        },
                        {
                            "internalType": "uint256",
                            "name": "timestamp",
                            "type": "uint256"
                        },
                        {
                            "internalType": "bool",
                            "name": "deleted",
                            "type": "bool"
                        },
                        {
                            "internalType": "bool",
                            "name": "paidOut",
                            "type": "bool"
                        },
                        {
                            "internalType": "bool",
                            "name": "refunded",
                            "type": "bool"
                        },
                        {
                            "internalType": "bool",
                            "name": "minted",
                            "type": "bool"
                        }
                    ],
                    "internalType": "struct Structs.EventStruct",
                    "name": "",
                    "type": "tuple"
                }
            ],
            "stateMutability": "view",
            "type": "function"
        },
        {
            "inputs": [
                {
                    "internalType": "uint256",
                    "name": "eventId",
                    "type": "uint256"
                }
            ],
            "name": "getTickets",
            "outputs": [
                {
                    "components": [
                        {
                            "internalType": "uint256",
                            "name": "id",
                            "type": "uint256"
                        },
                        {
                            "internalType": "uint256",
                            "name": "eventId",
                            "type": "uint256"
                        },
                        {
                            "internalType": "address",
                            "name": "owner",
                            "type": "address"
                        },
                        {
                            "internalType": "uint256",
                            "name": "ticketCost",
                            "type": "uint256"
                        },
                        {
                            "internalType": "uint256",
                            "name": "timestamp",
                            "type": "uint256"
                        },
                        {
                            "internalType": "bool",
                            "name": "refunded",
                            "type": "bool"
                        },
                        {
                            "internalType": "bool",
                            "name": "minted",
                            "type": "bool"
                        }
                    ],
                    "internalType": "struct Structs.TicketStruct[]",
                    "name": "Tickets",
                    "type": "tuple[]"
                }
            ],
            "stateMutability": "view",
            "type": "function"
        },
        {
            "inputs": [
                {
                    "internalType": "address",
                    "name": "owner",
                    "type": "address"
                },
                {
                    "internalType": "address",
                    "name": "operator",
                    "type": "address"
                }
            ],
            "name": "isApprovedForAll",
            "outputs": [
                {
                    "internalType": "bool",
                    "name": "",
                    "type": "bool"
                }
            ],
            "stateMutability": "view",
            "type": "function"
        },
        {
            "inputs": [],
            "name": "name",
            "outputs": [
                {
                    "internalType": "string",
                    "name": "",
                    "type": "string"
                }
            ],
            "stateMutability": "view",
            "type": "function"
        },
        {
            "inputs": [],
            "name": "newTicketCost",
            "outputs": [
                {
                    "internalType": "uint256",
                    "name": "",
                    "type": "uint256"
                }
            ],
            "stateMutability": "view",
            "type": "function"
        },
        {
            "inputs": [],
            "name": "owner",
            "outputs": [
                {
                    "internalType": "address",
                    "name": "",
                    "type": "address"
                }
            ],
            "stateMutability": "view",
            "type": "function"
        },
        {
            "inputs": [
                {
                    "internalType": "uint256",
                    "name": "tokenId",
                    "type": "uint256"
                }
            ],
            "name": "ownerOf",
            "outputs": [
                {
                    "internalType": "address",
                    "name": "",
                    "type": "address"
                }
            ],
            "stateMutability": "view",
            "type": "function"
        },
        {
            "inputs": [
                {
                    "internalType": "uint256",
                    "name": "eventId",
                    "type": "uint256"
                }
            ],
            "name": "payout",
            "outputs": [],
            "stateMutability": "nonpayable",
            "type": "function"
        },
        {
            "inputs": [],
            "name": "renounceOwnership",
            "outputs": [],
            "stateMutability": "nonpayable",
            "type": "function"
        },
        {
            "inputs": [
                {
                    "internalType": "address",
                    "name": "from",
                    "type": "address"
                },
                {
                    "internalType": "address",
                    "name": "to",
                    "type": "address"
                },
                {
                    "internalType": "uint256",
                    "name": "tokenId",
                    "type": "uint256"
                }
            ],
            "name": "safeTransferFrom",
            "outputs": [],
            "stateMutability": "nonpayable",
            "type": "function"
        },
        {
            "inputs": [
                {
                    "internalType": "address",
                    "name": "from",
                    "type": "address"
                },
                {
                    "internalType": "address",
                    "name": "to",
                    "type": "address"
                },
                {
                    "internalType": "uint256",
                    "name": "tokenId",
                    "type": "uint256"
                },
                {
                    "internalType": "bytes",
                    "name": "data",
                    "type": "bytes"
                }
            ],
            "name": "safeTransferFrom",
            "outputs": [],
            "stateMutability": "nonpayable",
            "type": "function"
        },
        {
            "inputs": [
                {
                    "internalType": "address",
                    "name": "operator",
                    "type": "address"
                },
                {
                    "internalType": "bool",
                    "name": "approved",
                    "type": "bool"
                }
            ],
            "name": "setApprovalForAll",
            "outputs": [],
            "stateMutability": "nonpayable",
            "type": "function"
        },
        {
            "inputs": [
                {
                    "internalType": "bytes4",
                    "name": "interfaceId",
                    "type": "bytes4"
                }
            ],
            "name": "supportsInterface",
            "outputs": [
                {
                    "internalType": "bool",
                    "name": "",
                    "type": "bool"
                }
            ],
            "stateMutability": "view",
            "type": "function"
        },
        {
            "inputs": [],
            "name": "symbol",
            "outputs": [
                {
                    "internalType": "string",
                    "name": "",
                    "type": "string"
                }
            ],
            "stateMutability": "view",
            "type": "function"
        },
        {
            "inputs": [
                {
                    "internalType": "uint256",
                    "name": "tokenId",
                    "type": "uint256"
                }
            ],
            "name": "tokenURI",
            "outputs": [
                {
                    "internalType": "string",
                    "name": "",
                    "type": "string"
                }
            ],
            "stateMutability": "view",
            "type": "function"
        },
        {
            "inputs": [
                {
                    "internalType": "address",
                    "name": "from",
                    "type": "address"
                },
                {
                    "internalType": "address",
                    "name": "to",
                    "type": "address"
                },
                {
                    "internalType": "uint256",
                    "name": "tokenId",
                    "type": "uint256"
                }
            ],
            "name": "transferFrom",
            "outputs": [],
            "stateMutability": "nonpayable",
            "type": "function"
        },
        {
            "inputs": [
                {
                    "internalType": "address",
                    "name": "newOwner",
                    "type": "address"
                }
            ],
            "name": "transferOwnership",
            "outputs": [],
            "stateMutability": "nonpayable",
            "type": "function"
        },
        {
            "inputs": [
                {
                    "internalType": "uint256",
                    "name": "eventId",
                    "type": "uint256"
                },
                {
                    "internalType": "string",
                    "name": "title",
                    "type": "string"
                },
                {
                    "internalType": "string",
                    "name": "description",
                    "type": "string"
                },
                {
                    "internalType": "string",
                    "name": "imageUrl",
                    "type": "string"
                },
                {
                    "internalType": "uint256",
                    "name": "capacity",
                    "type": "uint256"
                },
                {
                    "internalType": "uint256",
                    "name": "ticketCost",
                    "type": "uint256"
                },
                {
                    "internalType": "uint256",
                    "name": "startsAt",
                    "type": "uint256"
                },
                {
                    "internalType": "uint256",
                    "name": "endsAt",
                    "type": "uint256"
                }
            ],
            "name": "updateEvent",
            "outputs": [],
            "stateMutability": "nonpayable",
            "type": "function"
        }
    ],
    "bytecode": "0x60806040523480156200001157600080fd5b506040516200396a3803806200396a833981016040819052620000349162000130565b604051806040016040528060078152602001664d53717561726560c81b815250604051806040016040528060028152602001614d4d60f01b8152506200008962000083620000dc60201b60201c565b620000e0565b6001805560026200009b8382620001ef565b506003620000aa8282620001ef565b505050600c55600a80546001600160a01b03191673694aa1769357215de4fac081bf1f309adc325306179055620002bb565b3390565b600080546001600160a01b038381166001600160a01b0319831681178455604051919092169283917f8be0079c531659141344cd1fd0a4f28419497f9722a3daafe3b4186f6b6457e09190a35050565b6000602082840312156200014357600080fd5b5051919050565b634e487b7160e01b600052604160045260246000fd5b600181811c908216806200017557607f821691505b6020821081036200019657634e487b7160e01b600052602260045260246000fd5b50919050565b601f821115620001ea57600081815260208120601f850160051c81016020861015620001c55750805b601f850160051c820191505b81811015620001e657828155600101620001d1565b5050505b505050565b81516001600160401b038111156200020b576200020b6200014a565b62000223816200021c845462000160565b846200019c565b602080601f8311600181146200025b5760008415620002425750858301515b600019600386901b1c1916600185901b178555620001e6565b600085815260208120601f198616915b828110156200028c578886015182559484019460019091019084016200026b565b5085821015620002ab5787850151600019600388901b60f8161c191681555b5050505050600190811b01905550565b61369f80620002cb6000396000f3fe6080604052600436106101b75760003560e01c8063835e489f116100ec578063c87b56dd1161008a578063e985e9c511610064578063e985e9c5146104c8578063ead6d0dd146104e8578063f2fde38b14610508578063f8749a581461052857600080fd5b8063c87b56dd14610473578063d9cb132414610493578063e1152343146104a857600080fd5b806395d89b41116100c657806395d89b4114610408578063a22cb4651461041d578063b69ef8a81461043d578063b88d4fde1461045357600080fd5b8063835e489f146103b75780638627df46146103d75780638da5cb5b146103ea57600080fd5b80633548124b1161015957806348094ee51161013357806348094ee51461033e5780636352211e1461036257806370a0823114610382578063715018a6146103a257600080fd5b80633548124b146102e7578063404aa8f91461030957806342842e0e1461031e57600080fd5b8063081812fc11610195578063081812fc14610240578063095ea7b31461027857806314f2979f1461029a57806323b872dd146102c757600080fd5b806301ffc9a7146101bc57806306fdde03146101f1578063071843aa14610213575b600080fd5b3480156101c857600080fd5b506101dc6101d7366004612bc6565b610548565b60405190151581526020015b60405180910390f35b3480156101fd57600080fd5b5061020661059a565b6040516101e89190612c33565b34801561021f57600080fd5b5061023361022e366004612c46565b61062c565b6040516101e89190612d57565b34801561024c57600080fd5b5061026061025b366004612c46565b6108b9565b6040516001600160a01b0390911681526020016101e8565b34801561028457600080fd5b50610298610293366004612d86565b6108e0565b005b3480156102a657600080fd5b506102ba6102b5366004612c46565b6109fa565b6040516101e89190612db0565b3480156102d357600080fd5b506102986102e2366004612e3f565b610ac0565b3480156102f357600080fd5b506102fc610af1565b6040516101e89190612e7b565b34801561031557600080fd5b506102fc610ec5565b34801561032a57600080fd5b50610298610339366004612e3f565b611245565b34801561034a57600080fd5b50610354600d5481565b6040519081526020016101e8565b34801561036e57600080fd5b5061026061037d366004612c46565b611260565b34801561038e57600080fd5b5061035461039d366004612edd565b6112c0565b3480156103ae57600080fd5b50610298611346565b3480156103c357600080fd5b506102986103d2366004612fa4565b61135a565b6102986103e5366004613051565b61163b565b3480156103f657600080fd5b506000546001600160a01b0316610260565b34801561041457600080fd5b506102066118ec565b34801561042957600080fd5b50610298610438366004613073565b6118fb565b34801561044957600080fd5b50610354600b5481565b34801561045f57600080fd5b5061029861046e3660046130af565b61190a565b34801561047f57600080fd5b5061020661048e366004612c46565b611942565b34801561049f57600080fd5b506103546119b6565b3480156104b457600080fd5b506102986104c3366004612c46565b611a3b565b3480156104d457600080fd5b506101dc6104e336600461312b565b611c1a565b3480156104f457600080fd5b5061029861050336600461315e565b611c48565b34801561051457600080fd5b50610298610523366004612edd565b611e1e565b34801561053457600080fd5b50610298610543366004612c46565b611e97565b60006001600160e01b031982166380ac58cd60e01b148061057957506001600160e01b03198216635b5e139f60e01b145b8061059457506301ffc9a760e01b6001600160e01b03198316145b92915050565b6060600280546105a990613214565b80601f01602080910402602001604051908101604052809291908181526020018280546105d590613214565b80156106225780601f106105f757610100808354040283529160200191610622565b820191906000526020600020905b81548152906001019060200180831161060557829003601f168201915b5050505050905090565b610634612b22565b600e6000838152602001908152602001600020604051806102000160405290816000820154815260200160018201805461066d90613214565b80601f016020809104026020016040519081016040528092919081815260200182805461069990613214565b80156106e65780601f106106bb576101008083540402835291602001916106e6565b820191906000526020600020905b8154815290600101906020018083116106c957829003601f168201915b505050505081526020016002820180546106ff90613214565b80601f016020809104026020016040519081016040528092919081815260200182805461072b90613214565b80156107785780601f1061074d57610100808354040283529160200191610778565b820191906000526020600020905b81548152906001019060200180831161075b57829003601f168201915b5050505050815260200160038201805461079190613214565b80601f01602080910402602001604051908101604052809291908181526020018280546107bd90613214565b801561080a5780601f106107df5761010080835404028352916020019161080a565b820191906000526020600020905b8154815290600101906020018083116107ed57829003601f168201915b505050918352505060048201546001600160a01b03166020820152600582015460408201526006820154606082015260078201546080820152600882015460a0820152600982015460c0820152600a82015460e0820152600b82015461010080830191909152600c9092015460ff808216151561012084015292810483161515610140830152620100008104831615156101608301526301000000900490911615156101809091015292915050565b60006108c482612001565b506000908152600660205260409020546001600160a01b031690565b60006108eb82611260565b9050806001600160a01b0316836001600160a01b03160361095d5760405162461bcd60e51b815260206004820152602160248201527f4552433732313a20617070726f76616c20746f2063757272656e74206f776e656044820152603960f91b60648201526084015b60405180910390fd5b336001600160a01b038216148061097957506109798133611c1a565b6109eb5760405162461bcd60e51b815260206004820152603d60248201527f4552433732313a20617070726f76652063616c6c6572206973206e6f7420746f60448201527f6b656e206f776e6572206f7220617070726f76656420666f7220616c6c0000006064820152608401610954565b6109f58383612060565b505050565b6060600f6000838152602001908152602001600020805480602002602001604051908101604052809291908181526020016000905b82821015610ab55760008481526020908190206040805160e08101825260068602909201805483526001808201548486015260028201546001600160a01b03169284019290925260038101546060840152600481015460808401526005015460ff808216151560a085015261010090910416151560c08301529083529092019101610a2f565b505050509050919050565b610aca33826120ce565b610ae65760405162461bcd60e51b81526004016109549061324e565b6109f583838361212d565b6060600060015b6008548111610b61576000818152600e60205260409020600c015460ff16158015610b3c57506000818152600e60205260409020600401546001600160a01b031633145b15610b4f5781610b4b816132b1565b9250505b80610b59816132b1565b915050610af8565b508067ffffffffffffffff811115610b7b57610b7b612ef8565b604051908082528060200260200182016040528015610bb457816020015b610ba1612b22565b815260200190600190039081610b995790505b509150600060015b6008548111610ebf576000818152600e60205260409020600c015460ff16158015610c0057506000818152600e60205260409020600401546001600160a01b031633145b15610ead57600e60008281526020019081526020016000206040518061020001604052908160008201548152602001600182018054610c3e90613214565b80601f0160208091040260200160405190810160405280929190818152602001828054610c6a90613214565b8015610cb75780601f10610c8c57610100808354040283529160200191610cb7565b820191906000526020600020905b815481529060010190602001808311610c9a57829003601f168201915b50505050508152602001600282018054610cd090613214565b80601f0160208091040260200160405190810160405280929190818152602001828054610cfc90613214565b8015610d495780601f10610d1e57610100808354040283529160200191610d49565b820191906000526020600020905b815481529060010190602001808311610d2c57829003601f168201915b50505050508152602001600382018054610d6290613214565b80601f0160208091040260200160405190810160405280929190818152602001828054610d8e90613214565b8015610ddb5780601f10610db057610100808354040283529160200191610ddb565b820191906000526020600020905b815481529060010190602001808311610dbe57829003601f168201915b505050918352505060048201546001600160a01b03166020820152600582015460408201526006820154606082015260078201546080820152600882015460a0820152600982015460c0820152600a82015460e0820152600b82015461010080830191909152600c9092015460ff80821615156101208401529281048316151561014083015262010000810483161515610160830152630100000090049091161515610180909101528483610e8f816132b1565b945081518110610ea157610ea16132ca565b60200260200101819052505b80610eb7816132b1565b915050610bbc565b50505090565b6060600060015b6008548111610f0e576000818152600e60205260409020600c015460ff16610efc5781610ef8816132b1565b9250505b80610f06816132b1565b915050610ecc565b508067ffffffffffffffff811115610f2857610f28612ef8565b604051908082528060200260200182016040528015610f6157816020015b610f4e612b22565b815260200190600190039081610f465790505b509150600060015b6008548111610ebf576000818152600e60205260409020600c015460ff1661123357600e60008281526020019081526020016000206040518061020001604052908160008201548152602001600182018054610fc490613214565b80601f0160208091040260200160405190810160405280929190818152602001828054610ff090613214565b801561103d5780601f106110125761010080835404028352916020019161103d565b820191906000526020600020905b81548152906001019060200180831161102057829003601f168201915b5050505050815260200160028201805461105690613214565b80601f016020809104026020016040519081016040528092919081815260200182805461108290613214565b80156110cf5780601f106110a4576101008083540402835291602001916110cf565b820191906000526020600020905b8154815290600101906020018083116110b257829003601f168201915b505050505081526020016003820180546110e890613214565b80601f016020809104026020016040519081016040528092919081815260200182805461111490613214565b80156111615780601f1061113657610100808354040283529160200191611161565b820191906000526020600020905b81548152906001019060200180831161114457829003601f168201915b505050918352505060048201546001600160a01b03166020820152600582015460408201526006820154606082015260078201546080820152600882015460a0820152600982015460c0820152600a82015460e0820152600b82015461010080830191909152600c9092015460ff80821615156101208401529281048316151561014083015262010000810483161515610160830152630100000090049091161515610180909101528483611215816132b1565b945081518110611227576112276132ca565b60200260200101819052505b8061123d816132b1565b915050610f69565b6109f58383836040518060200160405280600081525061190a565b6000818152600460205260408120546001600160a01b0316806105945760405162461bcd60e51b8152602060048201526018602482015277115490cdcc8c4e881a5b9d985b1a59081d1bdad95b88125160421b6044820152606401610954565b60006001600160a01b03821661132a5760405162461bcd60e51b815260206004820152602960248201527f4552433732313a2061646472657373207a65726f206973206e6f7420612076616044820152683634b21037bbb732b960b91b6064820152608401610954565b506001600160a01b031660009081526005602052604090205490565b61134e612291565b61135860006122eb565b565b8260000361137b5760405163273e150360e21b815260040160405180910390fd5b8360000361139c5760405163273e150360e21b815260040160405180910390fd5b86516000036113be576040516342bcdf7f60e11b815260040160405180910390fd5b85516000036113e0576040516342bcdf7f60e11b815260040160405180910390fd5b8451600003611402576040516342bcdf7f60e11b815260040160405180910390fd5b816000036114235760405163273e150360e21b815260040160405180910390fd5b81811161144357604051630c93477d60e41b815260040160405180910390fd5b611451600880546001019055565b611459612b22565b600854815260208101889052606081018790526040810186905260e0810185905260c081018490526101208101839052610140810182905233608082015261149f61233b565b61016082015280516000908152601060209081526040808320805460ff1916600190811790915584518452600e83529220835181559083015183928201906114e7908261332e565b50604082015160028201906114fc908261332e565b5060608201516003820190611511908261332e565b5060808201516004820180546001600160a01b0319166001600160a01b0390921691909117905560a0820151600582015560c0820151600682015560e082015160078201556101008083015160088301556101208301516009830155610140830151600a830155610160830151600b830155610180830151600c90920180546101a08501516101c08601516101e09096015161ffff1990921694151561ff001916949094179315159092029290921763ffff00001916620100009315159390930263ff00000019169290921763010000009215159290920291909117905560405130903390611601908b906133ee565b604051908190038120907fe6c2337f29db559b2e5b263ff5127675050f14f789d630865e25e1f91ca6dcb190600090a45050505050505050565b60008281526010602052604090205460ff1661166a57604051630c93477d60e41b815260040160405180910390fd5b6000828152600e602052604090206006015461168790829061340a565b3410156116a75760405163273e150360e21b815260040160405180910390fd5b806000036116c85760405163273e150360e21b815260040160405180910390fd5b6000828152600e6020526040902060078101546008909101546116ec908390613421565b111561170b5760405163711be3bb60e01b815260040160405180910390fd5b60005b81811015611855576117636040518060e00160405280600081526020016000815260200160006001600160a01b0316815260200160008152602001600081526020016000151581526020016000151581525090565b6000848152600f602090815260408083205484528382018790523384820152868352600e909152902060060154606082015261179d61233b565b608082019081526000858152600f6020908152604080832080546001818101835591855293839020865160069095020193845591850151918301919091558301516002820180546001600160a01b039092166001600160a01b0319909216919091179055606083015160038201559051600482015560a08201516005909101805460c09093015115156101000261ff00199215159290921661ffff19909316929092171790558061184d816132b1565b91505061170e565b506000828152600e602052604081206008018054839290611877908490613421565b9250508190555034600b60008282546118909190613421565b90915550506000828152600e60205260409081902090516118b49160010190613434565b60405190819003812090339084907f66286b4fa16eaeab615ea054252e138d07e504faaf4c8a4215f094d1f8456e8b90600090a45050565b6060600380546105a990613214565b61190633838361235a565b5050565b61191433836120ce565b6119305760405162461bcd60e51b81526004016109549061324e565b61193c84848484612428565b50505050565b606061194d82612001565b600061196460408051602081019091526000815290565b9050600081511161198457604051806020016040528060008152506119af565b8061198e8461245b565b60405160200161199f9291906134aa565b6040516020818303038152906040525b9392505050565b600080600a60009054906101000a90046001600160a01b03166001600160a01b031663feaf968c6040518163ffffffff1660e01b815260040160a060405180830381865afa158015611a0c573d6000803e3d6000fd5b505050506040513d601f19601f82011682018060405250810190611a3091906134f3565b509195945050505050565b60008181526010602052604090205460ff16611a6a57604051630c93477d60e41b815260040160405180910390fd5b6000818152600e60205260409020600c0154610100900460ff1615611aa2576040516362e08d4560e01b815260040160405180910390fd5b6000818152600e60205260409020600a0154611abc61233b565b11611ada576040516308cff92d60e41b815260040160405180910390fd5b6000818152600e60205260409020600401546001600160a01b03163314801590611b0f57506000546001600160a01b03163314155b15611b2d57604051633a4af34560e21b815260040160405180910390fd5b611b36816124ee565b611b53576040516308cff92d60e41b815260040160405180910390fd5b6000818152600e602052604081206008810154600690910154611b76919061340a565b905060006064600c5483611b8a919061340a565b611b949190613543565b6000848152600e6020526040902060040154909150611bc5906001600160a01b0316611bc08385613565565b6125ef565b611be0611bda6000546001600160a01b031690565b826125ef565b6000838152600e60205260408120600c01805461ff001916610100179055600b8054849290611c10908490613565565b9091555050505050565b6001600160a01b03918216600090815260076020908152604080832093909416825291909152205460ff1690565b60008881526010602052604090205460ff16611c7757604051630c93477d60e41b815260040160405180910390fd5b6000888152600e60205260409020600401546001600160a01b03163314611cb157604051633a4af34560e21b815260040160405180910390fd5b82600003611cd25760405163273e150360e21b815260040160405180910390fd5b83600003611cf35760405163273e150360e21b815260040160405180910390fd5b8651600003611d15576040516342bcdf7f60e11b815260040160405180910390fd5b8551600003611d37576040516342bcdf7f60e11b815260040160405180910390fd5b8451600003611d59576040516342bcdf7f60e11b815260040160405180910390fd5b81600003611d7a5760405163273e150360e21b815260040160405180910390fd5b818111611d9a57604051630c93477d60e41b815260040160405180910390fd5b6000888152600e60205260409020600101611db5888261332e565b506000888152600e60205260409020600301611dd1878261332e565b506000888152600e60205260409020600201611ded868261332e565b506000978852600e6020526040909720600781019390935560068301919091556009820155600a0193909355505050565b611e26612291565b6001600160a01b038116611e8b5760405162461bcd60e51b815260206004820152602660248201527f4f776e61626c653a206e6577206f776e657220697320746865207a65726f206160448201526564647265737360d01b6064820152608401610954565b611e94816122eb565b50565b60008181526010602052604090205460ff16611ec657604051630c93477d60e41b815260040160405180910390fd5b6000818152600e60205260409020600401546001600160a01b03163314801590611efb57506000546001600160a01b03163314155b15611f1957604051633a4af34560e21b815260040160405180910390fd5b6000818152600e60205260409020600c0154610100900460ff1615611f51576040516362e08d4560e01b815260040160405180910390fd5b6000818152600e60205260409020600c015462010000900460ff1615611f8a576040516308cff92d60e41b815260040160405180910390fd5b6000818152600e60205260409020600c015460ff1615611fbd576040516308cff92d60e41b815260040160405180910390fd5b611fc68161264f565b611fe3576040516308cff92d60e41b815260040160405180910390fd5b6000908152600e60205260409020600c01805460ff19166001179055565b6000818152600460205260409020546001600160a01b0316611e945760405162461bcd60e51b8152602060048201526018602482015277115490cdcc8c4e881a5b9d985b1a59081d1bdad95b88125160421b6044820152606401610954565b600081815260066020526040902080546001600160a01b0319166001600160a01b038416908117909155819061209582611260565b6001600160a01b03167f8c5be1e5ebec7d5bd14f71427d1e84f3dd0314c0f7b2291e5b200ac8c7c3b92560405160405180910390a45050565b6000806120da83611260565b9050806001600160a01b0316846001600160a01b0316148061210157506121018185611c1a565b806121255750836001600160a01b031661211a846108b9565b6001600160a01b0316145b949350505050565b826001600160a01b031661214082611260565b6001600160a01b0316146121665760405162461bcd60e51b815260040161095490613578565b6001600160a01b0382166121c85760405162461bcd60e51b8152602060048201526024808201527f4552433732313a207472616e7366657220746f20746865207a65726f206164646044820152637265737360e01b6064820152608401610954565b826001600160a01b03166121db82611260565b6001600160a01b0316146122015760405162461bcd60e51b815260040161095490613578565b600081815260066020908152604080832080546001600160a01b03199081169091556001600160a01b0387811680865260058552838620805460001901905590871680865283862080546001019055868652600490945282852080549092168417909155905184937fddf252ad1be2c89b69c2b068fc378daa952ba7f163c4a11628f55a4df523b3ef91a4505050565b6000546001600160a01b031633146113585760405162461bcd60e51b815260206004820181905260248201527f4f776e61626c653a2063616c6c6572206973206e6f7420746865206f776e65726044820152606401610954565b600080546001600160a01b038381166001600160a01b0319831681178455604051919092169283917f8be0079c531659141344cd1fd0a4f28419497f9722a3daafe3b4186f6b6457e09190a35050565b6000612349426103e861340a565b612355906103e8613421565b905090565b816001600160a01b0316836001600160a01b0316036123bb5760405162461bcd60e51b815260206004820152601960248201527f4552433732313a20617070726f766520746f2063616c6c6572000000000000006044820152606401610954565b6001600160a01b03838116600081815260076020908152604080832094871680845294825291829020805460ff191686151590811790915591519182527f17307eab39ab6107e8899845ad3d59bd9653f200f220920489ca2b5937696c31910160405180910390a3505050565b61243384848461212d565b61243f848484846127be565b61193c5760405162461bcd60e51b8152600401610954906135bd565b60606000612468836128bf565b600101905060008167ffffffffffffffff81111561248857612488612ef8565b6040519080825280601f01601f1916602001820160405280156124b2576020820181803683370190505b5090508181016020015b600019016f181899199a1a9b1b9c1cb0b131b232b360811b600a86061a8153600a85049450846124bc57509392505050565b6000805b6000838152600f60205260409020548110156125c657612516600980546001019055565b6000838152600f602052604090208054600191908390811061253a5761253a6132ca565b906000526020600020906006020160050160016101000a81548160ff0219169083151502179055506125b4600f60008581526020019081526020016000208281548110612589576125896132ca565b60009182526020909120600260069092020101546001600160a01b03166125af60095490565b612997565b806125be816132b1565b9150506124f2565b50506000908152600e60205260409020600c01805463ff00000019166301000000179055600190565b6000826001600160a01b03168260405160006040518083038185875af1925050503d806000811461263c576040519150601f19603f3d011682016040523d82523d6000602084013e612641565b606091505b50509050806109f557600080fd5b6000805b6000838152600f6020526040902054811015612797576000838152600f602052604090208054600191908390811061268d5761268d6132ca565b906000526020600020906006020160050160006101000a81548160ff02191690831515021790555061273c600f600085815260200190815260200160002082815481106126dc576126dc6132ca565b906000526020600020906006020160020160009054906101000a90046001600160a01b0316600f60008681526020019081526020016000208381548110612725576127256132ca565b9060005260206000209060060201600301546125ef565b6000838152600f6020526040902080548290811061275c5761275c6132ca565b906000526020600020906006020160030154600b600082825461277f9190613565565b9091555081905061278f816132b1565b915050612653565b50506000908152600e60205260409020600c01805462ff0000191662010000179055600190565b60006001600160a01b0384163b156128b457604051630a85bd0160e11b81526001600160a01b0385169063150b7a029061280290339089908890889060040161360f565b6020604051808303816000875af192505050801561283d575060408051601f3d908101601f1916820190925261283a9181019061364c565b60015b61289a573d80801561286b576040519150601f19603f3d011682016040523d82523d6000602084013e612870565b606091505b5080516000036128925760405162461bcd60e51b8152600401610954906135bd565b805181602001fd5b6001600160e01b031916630a85bd0160e11b149050612125565b506001949350505050565b60008072184f03e93ff9f4daa797ed6e38ed64bf6a1f0160401b83106128fe5772184f03e93ff9f4daa797ed6e38ed64bf6a1f0160401b830492506040015b6d04ee2d6d415b85acef8100000000831061292a576d04ee2d6d415b85acef8100000000830492506020015b662386f26fc10000831061294857662386f26fc10000830492506010015b6305f5e1008310612960576305f5e100830492506008015b612710831061297457612710830492506004015b60648310612986576064830492506002015b600a83106105945760010192915050565b6001600160a01b0382166129ed5760405162461bcd60e51b815260206004820181905260248201527f4552433732313a206d696e7420746f20746865207a65726f20616464726573736044820152606401610954565b6000818152600460205260409020546001600160a01b031615612a525760405162461bcd60e51b815260206004820152601c60248201527f4552433732313a20746f6b656e20616c7265616479206d696e746564000000006044820152606401610954565b6000818152600460205260409020546001600160a01b031615612ab75760405162461bcd60e51b815260206004820152601c60248201527f4552433732313a20746f6b656e20616c7265616479206d696e746564000000006044820152606401610954565b6001600160a01b038216600081815260056020908152604080832080546001019055848352600490915280822080546001600160a01b0319168417905551839291907fddf252ad1be2c89b69c2b068fc378daa952ba7f163c4a11628f55a4df523b3ef908290a45050565b6040518061020001604052806000815260200160608152602001606081526020016060815260200160006001600160a01b03168152602001600081526020016000815260200160008152602001600081526020016000815260200160008152602001600081526020016000151581526020016000151581526020016000151581526020016000151581525090565b6001600160e01b031981168114611e9457600080fd5b600060208284031215612bd857600080fd5b81356119af81612bb0565b60005b83811015612bfe578181015183820152602001612be6565b50506000910152565b60008151808452612c1f816020860160208601612be3565b601f01601f19169290920160200192915050565b6020815260006119af6020830184612c07565b600060208284031215612c5857600080fd5b5035919050565b6000610200825184526020830151816020860152612c7f82860182612c07565b91505060408301518482036040860152612c998282612c07565b91505060608301518482036060860152612cb38282612c07565b9150506080830151612cd060808601826001600160a01b03169052565b5060a0838101519085015260c0808401519085015260e080840151908501526101008084015190850152610120808401519085015261014080840151908501526101608084015190850152610180808401511515908501526101a0808401511515908501526101c0808401511515908501526101e092830151151592909301919091525090565b6020815260006119af6020830184612c5f565b80356001600160a01b0381168114612d8157600080fd5b919050565b60008060408385031215612d9957600080fd5b612da283612d6a565b946020939093013593505050565b602080825282518282018190526000919060409081850190868401855b82811015612e32578151805185528681015187860152858101516001600160a01b031686860152606080820151908601526080808201519086015260a08082015115159086015260c09081015115159085015260e09093019290850190600101612dcd565b5091979650505050505050565b600080600060608486031215612e5457600080fd5b612e5d84612d6a565b9250612e6b60208501612d6a565b9150604084013590509250925092565b6000602080830181845280855180835260408601915060408160051b870101925083870160005b82811015612ed057603f19888603018452612ebe858351612c5f565b94509285019290850190600101612ea2565b5092979650505050505050565b600060208284031215612eef57600080fd5b6119af82612d6a565b634e487b7160e01b600052604160045260246000fd5b600067ffffffffffffffff80841115612f2957612f29612ef8565b604051601f8501601f19908116603f01168101908282118183101715612f5157612f51612ef8565b81604052809350858152868686011115612f6a57600080fd5b858560208301376000602087830101525050509392505050565b600082601f830112612f9557600080fd5b6119af83833560208501612f0e565b600080600080600080600060e0888a031215612fbf57600080fd5b873567ffffffffffffffff80821115612fd757600080fd5b612fe38b838c01612f84565b985060208a0135915080821115612ff957600080fd5b6130058b838c01612f84565b975060408a013591508082111561301b57600080fd5b506130288a828b01612f84565b979a96995096976060810135975060808101359660a0820135965060c090910135945092505050565b6000806040838503121561306457600080fd5b50508035926020909101359150565b6000806040838503121561308657600080fd5b61308f83612d6a565b9150602083013580151581146130a457600080fd5b809150509250929050565b600080600080608085870312156130c557600080fd5b6130ce85612d6a565b93506130dc60208601612d6a565b925060408501359150606085013567ffffffffffffffff8111156130ff57600080fd5b8501601f8101871361311057600080fd5b61311f87823560208401612f0e565b91505092959194509250565b6000806040838503121561313e57600080fd5b61314783612d6a565b915061315560208401612d6a565b90509250929050565b600080600080600080600080610100898b03121561317b57600080fd5b88359750602089013567ffffffffffffffff8082111561319a57600080fd5b6131a68c838d01612f84565b985060408b01359150808211156131bc57600080fd5b6131c88c838d01612f84565b975060608b01359150808211156131de57600080fd5b506131eb8b828c01612f84565b989b979a50959860808101359760a0820135975060c0820135965060e090910135945092505050565b600181811c9082168061322857607f821691505b60208210810361324857634e487b7160e01b600052602260045260246000fd5b50919050565b6020808252602d908201527f4552433732313a2063616c6c6572206973206e6f7420746f6b656e206f776e6560408201526c1c881bdc88185c1c1c9bdd9959609a1b606082015260800190565b634e487b7160e01b600052601160045260246000fd5b6000600182016132c3576132c361329b565b5060010190565b634e487b7160e01b600052603260045260246000fd5b601f8211156109f557600081815260208120601f850160051c810160208610156133075750805b601f850160051c820191505b8181101561332657828155600101613313565b505050505050565b815167ffffffffffffffff81111561334857613348612ef8565b61335c816133568454613214565b846132e0565b602080601f83116001811461339157600084156133795750858301515b600019600386901b1c1916600185901b178555613326565b600085815260208120601f198616915b828110156133c0578886015182559484019460019091019084016133a1565b50858210156133de5787850151600019600388901b60f8161c191681555b5050505050600190811b01905550565b60008251613400818460208701612be3565b9190910192915050565b80820281158282048414176105945761059461329b565b808201808211156105945761059461329b565b600080835461344281613214565b6001828116801561345a576001811461346f5761349e565b60ff198416875282151583028701945061349e565b8760005260208060002060005b858110156134955781548a82015290840190820161347c565b50505082870194505b50929695505050505050565b600083516134bc818460208801612be3565b8351908301906134d0818360208801612be3565b01949350505050565b805169ffffffffffffffffffff81168114612d8157600080fd5b600080600080600060a0868803121561350b57600080fd5b613514866134d9565b9450602086015193506040860151925060608601519150613537608087016134d9565b90509295509295909350565b60008261356057634e487b7160e01b600052601260045260246000fd5b500490565b818103818111156105945761059461329b565b60208082526025908201527f4552433732313a207472616e736665722066726f6d20696e636f72726563742060408201526437bbb732b960d91b606082015260800190565b60208082526032908201527f4552433732313a207472616e7366657220746f206e6f6e20455243373231526560408201527131b2b4bb32b91034b6b83632b6b2b73a32b960711b606082015260800190565b6001600160a01b038581168252841660208201526040810183905260806060820181905260009061364290830184612c07565b9695505050505050565b60006020828403121561365e57600080fd5b81516119af81612bb056fea2646970667358221220023968fee24557ae3a0c954e1dffab26930692fb5b590fa609ce0fcd5440909264736f6c63430008110033",
    "linkReferences": {},
    "deployedLinkReferences": {}
}